{
  "_format": "hh-sol-artifact-1",
  "contractName": "PingPong",
  "sourceName": "contracts/PingPong.sol",
  "abi": [
    {
      "anonymous": false,
      "inputs": [
        {
          "indexed": false,
          "internalType": "uint256",
          "name": "rallyCount",
          "type": "uint256"
        }
      ],
      "name": "Ping",
      "type": "event"
    },
    {
      "anonymous": false,
      "inputs": [
        {
          "indexed": false,
          "internalType": "uint256",
          "name": "rallyCount",
          "type": "uint256"
        }
      ],
      "name": "Pong",
      "type": "event"
    },
    {
      "inputs": [],
      "name": "counterpart",
      "outputs": [
        {
          "internalType": "address",
          "name": "",
          "type": "address"
        }
      ],
      "stateMutability": "view",
      "type": "function"
    },
    {
      "inputs": [],
      "name": "messagesReceived",
      "outputs": [
        {
          "internalType": "uint256",
          "name": "",
          "type": "uint256"
        }
      ],
      "stateMutability": "view",
      "type": "function"
    },
    {
      "inputs": [],
      "name": "messagesSent",
      "outputs": [
        {
          "internalType": "uint256",
          "name": "",
          "type": "uint256"
        }
      ],
      "stateMutability": "view",
      "type": "function"
    },
    {
      "inputs": [
        {
          "internalType": "uint256",
          "name": "rallyCount",
          "type": "uint256"
        }
      ],
      "name": "ping",
      "outputs": [],
      "stateMutability": "nonpayable",
      "type": "function"
    },
    {
      "inputs": [
        {
          "internalType": "uint256",
          "name": "rallyCount",
          "type": "uint256"
        }
      ],
      "name": "pong",
      "outputs": [],
      "stateMutability": "nonpayable",
      "type": "function"
    },
    {
      "inputs": [
        {
          "internalType": "address",
          "name": "_counterpart",
          "type": "address"
        }
      ],
      "name": "setCounterpart",
      "outputs": [],
      "stateMutability": "nonpayable",
      "type": "function"
    }
  ],
  "bytecode": "0x60806040526000600155600060025534801561001a57600080fd5b5061072c8061002a6000396000f3fe608060405234801561001057600080fd5b50600436106100625760003560e01c806313ceedb7146100675780635be63c7114610083578063752009d9146100a157806377061e4d146100bf578063773acdef146100db578063797594b0146100f7575b600080fd5b610081600480360381019061007c9190610421565b610115565b005b61008b610183565b6040516100989190610509565b60405180910390f35b6100a9610189565b6040516100b69190610509565b60405180910390f35b6100d960048036038101906100d491906103f8565b61018f565b005b6100f560048036038101906100f09190610421565b6102d1565b005b6100ff6103aa565b60405161010c91906104ae565b60405180910390f35b60016002546101249190610535565b6002819055507f58b69f57828e6962d216502094c54f6562f3bf082ba758966c3454f9e37b1525816040516101599190610509565b60405180910390a160008111156101805761017f60018261017a919061058b565b6102d1565b5b50565b60025481565b60015481565b600073ffffffffffffffffffffffffffffffffffffffff1660008054906101000a900473ffffffffffffffffffffffffffffffffffffffff1673ffffffffffffffffffffffffffffffffffffffff161461021e576040517f08c379a0000000000000000000000000000000000000000000000000000000008152600401610215906104c9565b60405180910390fd5b600073ffffffffffffffffffffffffffffffffffffffff168173ffffffffffffffffffffffffffffffffffffffff16141561028e576040517f08c379a0000000000000000000000000000000000000000000000000000000008152600401610285906104e9565b60405180910390fd5b806000806101000a81548173ffffffffffffffffffffffffffffffffffffffff021916908373ffffffffffffffffffffffffffffffffffffffff16021790555050565b600180546102df9190610535565b6001819055507f48257dc961b6f792c2b78a080dacfed693b660960a702de21cee364e20270e2f816040516103149190610509565b60405180910390a160008054906101000a900473ffffffffffffffffffffffffffffffffffffffff1673ffffffffffffffffffffffffffffffffffffffff166313ceedb7826040518263ffffffff1660e01b81526004016103759190610509565b600060405180830381600087803b15801561038f57600080fd5b505af11580156103a3573d6000803e3d6000fd5b5050505050565b60008054906101000a900473ffffffffffffffffffffffffffffffffffffffff1681565b6000813590506103dd816106c8565b92915050565b6000813590506103f2816106df565b92915050565b60006020828403121561040a57600080fd5b6000610418848285016103ce565b91505092915050565b60006020828403121561043357600080fd5b6000610441848285016103e3565b91505092915050565b610453816105bf565b82525050565b6000610466602183610524565b91506104718261062a565b604082019050919050565b6000610489602c83610524565b915061049482610679565b604082019050919050565b6104a8816105f1565b82525050565b60006020820190506104c3600083018461044a565b92915050565b600060208201905081810360008301526104e281610459565b9050919050565b600060208201905081810360008301526105028161047c565b9050919050565b600060208201905061051e600083018461049f565b92915050565b600082825260208201905092915050565b6000610540826105f1565b915061054b836105f1565b9250827fffffffffffffffffffffffffffffffffffffffffffffffffffffffffffffffff038211156105805761057f6105fb565b5b828201905092915050565b6000610596826105f1565b91506105a1836105f1565b9250828210156105b4576105b36105fb565b5b828203905092915050565b60006105ca826105d1565b9050919050565b600073ffffffffffffffffffffffffffffffffffffffff82169050919050565b6000819050919050565b7f4e487b7100000000000000000000000000000000000000000000000000000000600052601160045260246000fd5b7f50696e67506f6e673a20636f756e7465727061727420616c726561647920736560008201527f7400000000000000000000000000000000000000000000000000000000000000602082015250565b7f50696e67506f6e673a20636f756e746572706172742063616e6e6f742062652060008201527f7a65726f20616464726573730000000000000000000000000000000000000000602082015250565b6106d1816105bf565b81146106dc57600080fd5b50565b6106e8816105f1565b81146106f357600080fd5b5056fea26469706673582212203017d7ec20c9a04d80a2b027c654f93b2a55ef83fe68fdd8050cbc13a70fb4ce64736f6c63430008040033",
  "linkReferences": {},
  "deployedLinkReferences": {}
}